{"abi":[{"type":"function","name":"bets","inputs":[{"name":"","type":"uint256","internalType":"uint256"},{"name":"","type":"address","internalType":"address"}],"outputs":[{"name":"yes","type":"uint256","internalType":"uint256"},{"name":"no","type":"uint256","internalType":"uint256"},{"name":"claimed","type":"bool","internalType":"bool"}],"stateMutability":"view"},{"type":"function","name":"claim","inputs":[{"name":"marketId","type":"uint256","internalType":"uint256"}],"outputs":[],"stateMutability":"nonpayable"},{"type":"function","name":"createMarket","inputs":[{"name":"token","type":"address","internalType":"address"},{"name":"resolver","type":"address","internalType":"address"},{"name":"endTime","type":"uint256","internalType":"uint256"}],"outputs":[{"name":"marketId","type":"uint256","internalType":"uint256"}],"stateMutability":"nonpayable"},{"type":"function","name":"markets","inputs":[{"name":"","type":"uint256","internalType":"uint256"}],"outputs":[{"name":"creator","type":"address","internalType":"address"},{"name":"token","type":"address","internalType":"address"},{"name":"resolver","type":"address","internalType":"address"},{"name":"endTime","type":"uint256","internalType":"uint256"},{"name":"yesPool","type":"uint256","internalType":"uint256"},{"name":"noPool","type":"uint256","internalType":"uint256"},{"name":"result","type":"uint8","internalType":"uint8"},{"name":"resolved","type":"bool","internalType":"bool"}],"stateMutability":"view"},{"type":"function","name":"nextMarketId","inputs":[],"outputs":[{"name":"","type":"uint256","internalType":"uint256"}],"stateMutability":"view"},{"type":"function","name":"placeWager","inputs":[{"name":"marketId","type":"uint256","internalType":"uint256"},{"name":"yes","type":"bool","internalType":"bool"},{"name":"amount","type":"uint256","internalType":"uint256"}],"outputs":[],"stateMutability":"nonpayable"},{"type":"function","name":"resolveMarket","inputs":[{"name":"marketId","type":"uint256","internalType":"uint256"},{"name":"result","type":"uint8","internalType":"uint8"},{"name":"data","type":"bytes","internalType":"bytes"}],"outputs":[],"stateMutability":"nonpayable"},{"type":"event","name":"MarketCreated","inputs":[{"name":"marketId","type":"uint256","indexed":true,"internalType":"uint256"},{"name":"creator","type":"address","indexed":true,"internalType":"address"},{"name":"token","type":"address","indexed":true,"internalType":"address"},{"name":"resolver","type":"address","indexed":false,"internalType":"address"},{"name":"endTime","type":"uint256","indexed":false,"internalType":"uint256"}],"anonymous":false},{"type":"event","name":"MarketResolved","inputs":[{"name":"marketId","type":"uint256","indexed":true,"internalType":"uint256"},{"name":"result","type":"uint8","indexed":false,"internalType":"uint8"},{"name":"yesPool","type":"uint256","indexed":false,"internalType":"uint256"},{"name":"noPool","type":"uint256","indexed":false,"internalType":"uint256"}],"anonymous":false},{"type":"event","name":"PayoutClaimed","inputs":[{"name":"marketId","type":"uint256","indexed":true,"internalType":"uint256"},{"name":"bettor","type":"address","indexed":true,"internalType":"address"},{"name":"amount","type":"uint256","indexed":false,"internalType":"uint256"}],"anonymous":false},{"type":"event","name":"WagerPlaced","inputs":[{"name":"marketId","type":"uint256","indexed":true,"internalType":"uint256"},{"name":"bettor","type":"address","indexed":true,"internalType":"address"},{"name":"yes","type":"bool","indexed":false,"internalType":"bool"},{"name":"amount","type":"uint256","indexed":false,"internalType":"uint256"}],"anonymous":false},{"type":"error","name":"InvalidResult","inputs":[]},{"type":"error","name":"MarketClosed","inputs":[]},{"type":"error","name":"MarketOngoing","inputs":[]},{"type":"error","name":"MarketResolvedAlready","inputs":[]},{"type":"error","name":"NoWinningStake","inputs":[]},{"type":"error","name":"NothingToClaim","inputs":[]},{"type":"error","name":"ResolutionRejected","inputs":[]},{"type":"error","name":"ZeroAddress","inputs":[]},{"type":"error","name":"ZeroAmount","inputs":[]}],"bytecode":{"object":"0x60806040526001600255348015610014575f80fd5b5061164b806100225f395ff3fe608060405234801561000f575f80fd5b506004361061007b575f3560e01c806350294f901161005957806350294f90146100d557806382fca8a1146100f1578063b1283e7714610121578063f644b3bb146101585761007b565b8063379607f51461007f578063406ef2ef1461009b578063435d1c72146100b9575b5f80fd5b61009960048036038101906100949190610ebb565b61018a565b005b6100a36103e7565b6040516100b09190610ef5565b60405180910390f35b6100d360048036038101906100ce9190610f43565b6103ed565b005b6100ef60048036038101906100ea919061102a565b610600565b005b61010b600480360381019061010691906110f5565b610842565b6040516101189190610ef5565b60405180910390f35b61013b60048036038101906101369190610ebb565b610b61565b60405161014f989796959493929190611172565b60405180910390f35b610172600480360381019061016d91906111ee565b610c1a565b6040516101819392919061122c565b60405180910390f35b5f61019482610c57565b90508060060160019054906101000a900460ff166101de576040517f050d409b00000000000000000000000000000000000000000000000000000000815260040160405180910390fd5b5f60015f8481526020019081526020015f205f3373ffffffffffffffffffffffffffffffffffffffff1673ffffffffffffffffffffffffffffffffffffffff1681526020019081526020015f209050806002015f9054906101000a900460ff1615610275576040517f969bf72800000000000000000000000000000000000000000000000000000000815260040160405180910390fd5b5f6001836006015f9054906101000a900460ff1660ff161461029b5782600501546102a1565b82600401545b90505f6001846006015f9054906101000a900460ff1660ff16146102c95782600101546102ce565b825f01545b90505f8214806102dd57505f81145b15610314576040517f85dba5c200000000000000000000000000000000000000000000000000000000815260040160405180910390fd5b5f84600501548560040154610329919061128e565b90505f83838361033991906112c1565b610343919061132f565b90506001856002015f6101000a81548160ff02191690831515021790555061038f866001015f9054906101000a900473ffffffffffffffffffffffffffffffffffffffff163383610cf6565b3373ffffffffffffffffffffffffffffffffffffffff16877fe97cee5a4c0549d3fdc81e322b718ddf0aeb3418ec87dce4f9a7fb28d117c312836040516103d69190610ef5565b60405180910390a350505050505050565b60025481565b5f6103f784610c57565b90508060060160019054906101000a900460ff1615610442576040517f1db9461a00000000000000000000000000000000000000000000000000000000815260040160405180910390fd5b8060030154421061047f576040517f0b5f6bf000000000000000000000000000000000000000000000000000000000815260040160405180910390fd5b5f82036104b8576040517f1f2a200500000000000000000000000000000000000000000000000000000000815260040160405180910390fd5b6104e6816001015f9054906101000a900473ffffffffffffffffffffffffffffffffffffffff163384610dba565b5f60015f8681526020019081526020015f205f3373ffffffffffffffffffffffffffffffffffffffff1673ffffffffffffffffffffffffffffffffffffffff1681526020019081526020015f20905083156105735782815f015f82825461054d919061128e565b9250508190555082826004015f828254610567919061128e565b925050819055506105a8565b82816001015f828254610586919061128e565b9250508190555082826005015f8282546105a0919061128e565b925050819055505b3373ffffffffffffffffffffffffffffffffffffffff16857f7d8d4f26a6b0efd8523c4719d2e0162254cead93b7dfd925f61e7784fcbf0a6486866040516105f192919061135f565b60405180910390a35050505050565b5f61060a85610c57565b90508060060160019054906101000a900460ff1615610655576040517f1db9461a00000000000000000000000000000000000000000000000000000000815260040160405180910390fd5b8060030154421015610693576040517f050d409b00000000000000000000000000000000000000000000000000000000815260040160405180910390fd5b60018460ff16141580156106ab575060028460ff1614155b156106e2576040517f7c599f8000000000000000000000000000000000000000000000000000000000815260040160405180910390fd5b5f816002015f9054906101000a900473ffffffffffffffffffffffffffffffffffffffff1673ffffffffffffffffffffffffffffffffffffffff1663f263df5c878787876040518563ffffffff1660e01b815260040161074594939291906113e0565b602060405180830381865afa158015610760573d5f803e3d5ffd5b505050506040513d601f19601f820116820180604052508101906107849190611432565b9050806107bd576040517f114b2ff600000000000000000000000000000000000000000000000000000000815260040160405180910390fd5b60018260060160016101000a81548160ff02191690831515021790555084826006015f6101000a81548160ff021916908360ff160217905550857f503d167e0856e2f40aaac2dac6550f9543efb837691cc189cde53b0172e4f32b86846004015485600501546040516108329392919061145d565b60405180910390a2505050505050565b5f8073ffffffffffffffffffffffffffffffffffffffff168473ffffffffffffffffffffffffffffffffffffffff1614806108a857505f73ffffffffffffffffffffffffffffffffffffffff168373ffffffffffffffffffffffffffffffffffffffff16145b156108df576040517fd92e233d00000000000000000000000000000000000000000000000000000000815260040160405180910390fd5b428211610918576040517f0b5f6bf000000000000000000000000000000000000000000000000000000000815260040160405180910390fd5b60025f81548092919061092a90611492565b9190505590506040518061010001604052803373ffffffffffffffffffffffffffffffffffffffff1681526020018573ffffffffffffffffffffffffffffffffffffffff1681526020018473ffffffffffffffffffffffffffffffffffffffff1681526020018381526020015f81526020015f81526020015f60ff1681526020015f15158152505f808381526020019081526020015f205f820151815f015f6101000a81548173ffffffffffffffffffffffffffffffffffffffff021916908373ffffffffffffffffffffffffffffffffffffffff1602179055506020820151816001015f6101000a81548173ffffffffffffffffffffffffffffffffffffffff021916908373ffffffffffffffffffffffffffffffffffffffff1602179055506040820151816002015f6101000a81548173ffffffffffffffffffffffffffffffffffffffff021916908373ffffffffffffffffffffffffffffffffffffffff160217905550606082015181600301556080820151816004015560a0820151816005015560c0820151816006015f6101000a81548160ff021916908360ff16021790555060e08201518160060160016101000a81548160ff0219169083151502179055509050508373ffffffffffffffffffffffffffffffffffffffff163373ffffffffffffffffffffffffffffffffffffffff16827f6e169c7f97a4cb57830f27cebbd4557143a2a67153b42930b19ef53c755e62b18686604051610b529291906114d9565b60405180910390a49392505050565b5f602052805f5260405f205f91509050805f015f9054906101000a900473ffffffffffffffffffffffffffffffffffffffff1690806001015f9054906101000a900473ffffffffffffffffffffffffffffffffffffffff1690806002015f9054906101000a900473ffffffffffffffffffffffffffffffffffffffff1690806003015490806004015490806005015490806006015f9054906101000a900460ff16908060060160019054906101000a900460ff16905088565b6001602052815f5260405f20602052805f5260405f205f9150915050805f015490806001015490806002015f9054906101000a900460ff16905083565b5f805f8381526020019081526020015f2090505f73ffffffffffffffffffffffffffffffffffffffff16815f015f9054906101000a900473ffffffffffffffffffffffffffffffffffffffff1673ffffffffffffffffffffffffffffffffffffffff1603610cf1576040517fd92e233d00000000000000000000000000000000000000000000000000000000815260040160405180910390fd5b919050565b5f8373ffffffffffffffffffffffffffffffffffffffff1663a9059cbb84846040518363ffffffff1660e01b8152600401610d329291906114d9565b6020604051808303815f875af1158015610d4e573d5f803e3d5ffd5b505050506040513d601f19601f82011682018060405250810190610d729190611432565b905080610db4576040517f08c379a0000000000000000000000000000000000000000000000000000000008152600401610dab9061155a565b60405180910390fd5b50505050565b5f8373ffffffffffffffffffffffffffffffffffffffff166323b872dd8430856040518463ffffffff1660e01b8152600401610df893929190611578565b6020604051808303815f875af1158015610e14573d5f803e3d5ffd5b505050506040513d601f19601f82011682018060405250810190610e389190611432565b905080610e7a576040517f08c379a0000000000000000000000000000000000000000000000000000000008152600401610e71906115f7565b60405180910390fd5b50505050565b5f80fd5b5f80fd5b5f819050919050565b610e9a81610e88565b8114610ea4575f80fd5b50565b5f81359050610eb581610e91565b92915050565b5f60208284031215610ed057610ecf610e80565b5b5f610edd84828501610ea7565b91505092915050565b610eef81610e88565b82525050565b5f602082019050610f085f830184610ee6565b92915050565b5f8115159050919050565b610f2281610f0e565b8114610f2c575f80fd5b50565b5f81359050610f3d81610f19565b92915050565b5f805f60608486031215610f5a57610f59610e80565b5b5f610f6786828701610ea7565b9350506020610f7886828701610f2f565b9250506040610f8986828701610ea7565b9150509250925092565b5f60ff82169050919050565b610fa881610f93565b8114610fb2575f80fd5b50565b5f81359050610fc381610f9f565b92915050565b5f80fd5b5f80fd5b5f80fd5b5f8083601f840112610fea57610fe9610fc9565b5b8235905067ffffffffffffffff81111561100757611006610fcd565b5b60208301915083600182028301111561102357611022610fd1565b5b9250929050565b5f805f806060858703121561104257611041610e80565b5b5f61104f87828801610ea7565b945050602061106087828801610fb5565b935050604085013567ffffffffffffffff81111561108157611080610e84565b5b61108d87828801610fd5565b925092505092959194509250565b5f73ffffffffffffffffffffffffffffffffffffffff82169050919050565b5f6110c48261109b565b9050919050565b6110d4816110ba565b81146110de575f80fd5b50565b5f813590506110ef816110cb565b92915050565b5f805f6060848603121561110c5761110b610e80565b5b5f611119868287016110e1565b935050602061112a868287016110e1565b925050604061113b86828701610ea7565b9150509250925092565b61114e816110ba565b82525050565b61115d81610f93565b82525050565b61116c81610f0e565b82525050565b5f610100820190506111865f83018b611145565b611193602083018a611145565b6111a06040830189611145565b6111ad6060830188610ee6565b6111ba6080830187610ee6565b6111c760a0830186610ee6565b6111d460c0830185611154565b6111e160e0830184611163565b9998505050505050505050565b5f806040838503121561120457611203610e80565b5b5f61121185828601610ea7565b9250506020611222858286016110e1565b9150509250929050565b5f60608201905061123f5f830186610ee6565b61124c6020830185610ee6565b6112596040830184611163565b949350505050565b7f4e487b71000000000000000000000000000000000000000000000000000000005f52601160045260245ffd5b5f61129882610e88565b91506112a383610e88565b92508282019050808211156112bb576112ba611261565b5b92915050565b5f6112cb82610e88565b91506112d683610e88565b92508282026112e481610e88565b915082820484148315176112fb576112fa611261565b5b5092915050565b7f4e487b71000000000000000000000000000000000000000000000000000000005f52601260045260245ffd5b5f61133982610e88565b915061134483610e88565b92508261135457611353611302565b5b828204905092915050565b5f6040820190506113725f830185611163565b61137f6020830184610ee6565b9392505050565b5f82825260208201905092915050565b828183375f83830152505050565b5f601f19601f8301169050919050565b5f6113bf8385611386565b93506113cc838584611396565b6113d5836113a4565b840190509392505050565b5f6060820190506113f35f830187610ee6565b6114006020830186611154565b81810360408301526114138184866113b4565b905095945050505050565b5f8151905061142c81610f19565b92915050565b5f6020828403121561144757611446610e80565b5b5f6114548482850161141e565b91505092915050565b5f6060820190506114705f830186611154565b61147d6020830185610ee6565b61148a6040830184610ee6565b949350505050565b5f61149c82610e88565b91507fffffffffffffffffffffffffffffffffffffffffffffffffffffffffffffffff82036114ce576114cd611261565b5b600182019050919050565b5f6040820190506114ec5f830185611145565b6114f96020830184610ee6565b9392505050565b5f82825260208201905092915050565b7f5452414e534645525f4641494c454400000000000000000000000000000000005f82015250565b5f611544600f83611500565b915061154f82611510565b602082019050919050565b5f6020820190508181035f83015261157181611538565b9050919050565b5f60608201905061158b5f830186611145565b6115986020830185611145565b6115a56040830184610ee6565b949350505050565b7f5452414e534645525f46524f4d5f4641494c45440000000000000000000000005f82015250565b5f6115e1601483611500565b91506115ec826115ad565b602082019050919050565b5f6020820190508181035f83015261160e816115d5565b905091905056fea2646970667358221220d480b4c0ee8fad7edcd179e82c750a11ff7333ebea3dcbaf6814d62eb40319ff64736f6c63430008140033","linkReferences":{}},"methodIdentifiers":{"bets(uint256,address)":"f644b3bb","claim(uint256)":"379607f5","createMarket(address,address,uint256)":"82fca8a1","markets(uint256)":"b1283e77","nextMarketId()":"406ef2ef","placeWager(uint256,bool,uint256)":"435d1c72","resolveMarket(uint256,uint8,bytes)":"50294f90"},"id":0}