{"abi":[{"type":"constructor","inputs":[{"name":"oracle_","type":"address","internalType":"address"}],"stateMutability":"nonpayable"},{"type":"function","name":"chainId","inputs":[],"outputs":[{"name":"","type":"uint256","internalType":"uint256"}],"stateMutability":"view"},{"type":"function","name":"getDomainSeparator","inputs":[],"outputs":[{"name":"","type":"bytes32","internalType":"bytes32"}],"stateMutability":"view"},{"type":"function","name":"hashResolution","inputs":[{"name":"resolution","type":"tuple","internalType":"struct X402Resolver.Resolution","components":[{"name":"marketId","type":"uint256","internalType":"uint256"},{"name":"result","type":"uint8","internalType":"uint8"},{"name":"resolvedAt","type":"uint64","internalType":"uint64"}]}],"outputs":[{"name":"","type":"bytes32","internalType":"bytes32"}],"stateMutability":"view"},{"type":"function","name":"oracle","inputs":[],"outputs":[{"name":"","type":"address","internalType":"address"}],"stateMutability":"view"},{"type":"function","name":"verifyResolution","inputs":[{"name":"marketId","type":"uint256","internalType":"uint256"},{"name":"result","type":"uint8","internalType":"uint8"},{"name":"data","type":"bytes","internalType":"bytes"}],"outputs":[{"name":"valid","type":"bool","internalType":"bool"}],"stateMutability":"view"},{"type":"event","name":"ResolutionVerified","inputs":[{"name":"marketId","type":"uint256","indexed":true,"internalType":"uint256"},{"name":"result","type":"uint8","indexed":false,"internalType":"uint8"},{"name":"signer","type":"address","indexed":false,"internalType":"address"},{"name":"valid","type":"bool","indexed":false,"internalType":"bool"}],"anonymous":false}],"bytecode":{"object":"0x60c060405234801562000010575f80fd5b5060405162000e0238038062000e0283398181016040528101906200003691906200014f565b5f73ffffffffffffffffffffffffffffffffffffffff168173ffffffffffffffffffffffffffffffffffffffff1603620000a7576040517f08c379a00000000000000000000000000000000000000000000000000000000081526004016200009e90620001dd565b60405180910390fd5b8073ffffffffffffffffffffffffffffffffffffffff1660808173ffffffffffffffffffffffffffffffffffffffff16815250504660a0818152505050620001fd565b5f80fd5b5f73ffffffffffffffffffffffffffffffffffffffff82169050919050565b5f6200011982620000ee565b9050919050565b6200012b816200010d565b811462000136575f80fd5b50565b5f81519050620001498162000120565b92915050565b5f60208284031215620001675762000166620000ea565b5b5f620001768482850162000139565b91505092915050565b5f82825260208201905092915050565b7f4f5241434c455f524551554952454400000000000000000000000000000000005f82015250565b5f620001c5600f836200017f565b9150620001d2826200018f565b602082019050919050565b5f6020820190508181035f830152620001f681620001b7565b9050919050565b60805160a051610bce620002345f395f818161017a01528181610279015261030101525f818161025501526103e40152610bce5ff3fe608060405234801561000f575f80fd5b5060043610610055575f3560e01c80632fb57fa3146100595780637dc0d1d0146100895780639a8a0592146100a7578063ed24911d146100c5578063f263df5c146100e3575b5f80fd5b610073600480360381019061006e91906106ad565b610113565b60405161008091906106f0565b60405180910390f35b610091610253565b60405161009e9190610748565b60405180910390f35b6100af610277565b6040516100bc9190610770565b60405180910390f35b6100cd61029b565b6040516100da91906106f0565b60405180910390f35b6100fd60048036038101906100f891906107ea565b610350565b60405161010a9190610875565b60405180910390f35b5f807f8b73c3c69bb8fe3d512ecc4cf759cc79239f7b179b0ffacaa9a75d522b39400f7fa63c6a4afb434b111af85e30614954c8c87a432ce902d0794f4890606fd8a1207fc89efdaa54c0f20c7adf612882df0950f5a951637e0307cdcb4c672f298b8bc67f0000000000000000000000000000000000000000000000000000000000000000306040516020016101ae95949392919061088e565b6040516020818303038152906040528051906020012090505f7f4e9ad725e372f15a9f26a2ce223b8b9f06dda7b45240bdf871b65d4e303df528845f01518560200151866040015160405160200161020994939291906108fd565b60405160208183030381529060405280519060200120905081816040516020016102349291906109b4565b6040516020818303038152906040528051906020012092505050919050565b7f000000000000000000000000000000000000000000000000000000000000000081565b7f000000000000000000000000000000000000000000000000000000000000000081565b5f7f8b73c3c69bb8fe3d512ecc4cf759cc79239f7b179b0ffacaa9a75d522b39400f7fa63c6a4afb434b111af85e30614954c8c87a432ce902d0794f4890606fd8a1207fc89efdaa54c0f20c7adf612882df0950f5a951637e0307cdcb4c672f298b8bc67f00000000000000000000000000000000000000000000000000000000000000003060405160200161033595949392919061088e565b60405160208183030381529060405280519060200120905090565b5f60018460ff1614158015610369575060028460ff1614155b15610376575f9050610439565b5f8084848101906103879190610a9a565b91509150604181511461039e575f92505050610439565b5f60405180606001604052808981526020018860ff1681526020018467ffffffffffffffff1681525090505f6103d382610113565b90505f6103e08285610441565b90507f000000000000000000000000000000000000000000000000000000000000000073ffffffffffffffffffffffffffffffffffffffff168173ffffffffffffffffffffffffffffffffffffffff1614955050505050505b949350505050565b5f6041825114610453575f9050610503565b5f805f602085015192506040850151915060608501515f1a9050601b8160ff16101561048957601b816104869190610b21565b90505b601b8160ff16141580156104a15750601c8160ff1614155b156104b1575f9350505050610503565b6001868285856040515f81526020016040526040516104d39493929190610b55565b6020604051602081039080840390855afa1580156104f3573d5f803e3d5ffd5b5050506020604051035193505050505b92915050565b5f604051905090565b5f80fd5b5f80fd5b5f80fd5b5f601f19601f8301169050919050565b7f4e487b71000000000000000000000000000000000000000000000000000000005f52604160045260245ffd5b6105648261051e565b810181811067ffffffffffffffff821117156105835761058261052e565b5b80604052505050565b5f610595610509565b90506105a1828261055b565b919050565b5f819050919050565b6105b8816105a6565b81146105c2575f80fd5b50565b5f813590506105d3816105af565b92915050565b5f60ff82169050919050565b6105ee816105d9565b81146105f8575f80fd5b50565b5f81359050610609816105e5565b92915050565b5f67ffffffffffffffff82169050919050565b61062b8161060f565b8114610635575f80fd5b50565b5f8135905061064681610622565b92915050565b5f606082840312156106615761066061051a565b5b61066b606061058c565b90505f61067a848285016105c5565b5f83015250602061068d848285016105fb565b60208301525060406106a184828501610638565b60408301525092915050565b5f606082840312156106c2576106c1610512565b5b5f6106cf8482850161064c565b91505092915050565b5f819050919050565b6106ea816106d8565b82525050565b5f6020820190506107035f8301846106e1565b92915050565b5f73ffffffffffffffffffffffffffffffffffffffff82169050919050565b5f61073282610709565b9050919050565b61074281610728565b82525050565b5f60208201905061075b5f830184610739565b92915050565b61076a816105a6565b82525050565b5f6020820190506107835f830184610761565b92915050565b5f80fd5b5f80fd5b5f80fd5b5f8083601f8401126107aa576107a9610789565b5b8235905067ffffffffffffffff8111156107c7576107c661078d565b5b6020830191508360018202830111156107e3576107e2610791565b5b9250929050565b5f805f806060858703121561080257610801610512565b5b5f61080f878288016105c5565b9450506020610820878288016105fb565b935050604085013567ffffffffffffffff81111561084157610840610516565b5b61084d87828801610795565b925092505092959194509250565b5f8115159050919050565b61086f8161085b565b82525050565b5f6020820190506108885f830184610866565b92915050565b5f60a0820190506108a15f8301886106e1565b6108ae60208301876106e1565b6108bb60408301866106e1565b6108c86060830185610761565b6108d56080830184610739565b9695505050505050565b6108e8816105d9565b82525050565b6108f78161060f565b82525050565b5f6080820190506109105f8301876106e1565b61091d6020830186610761565b61092a60408301856108df565b61093760608301846108ee565b95945050505050565b5f81905092915050565b7f19010000000000000000000000000000000000000000000000000000000000005f82015250565b5f61097e600283610940565b91506109898261094a565b600282019050919050565b5f819050919050565b6109ae6109a9826106d8565b610994565b82525050565b5f6109be82610972565b91506109ca828561099d565b6020820191506109da828461099d565b6020820191508190509392505050565b5f80fd5b5f67ffffffffffffffff821115610a0857610a0761052e565b5b610a118261051e565b9050602081019050919050565b828183375f83830152505050565b5f610a3e610a39846109ee565b61058c565b905082815260208101848484011115610a5a57610a596109ea565b5b610a65848285610a1e565b509392505050565b5f82601f830112610a8157610a80610789565b5b8135610a91848260208601610a2c565b91505092915050565b5f8060408385031215610ab057610aaf610512565b5b5f610abd85828601610638565b925050602083013567ffffffffffffffff811115610ade57610add610516565b5b610aea85828601610a6d565b9150509250929050565b7f4e487b71000000000000000000000000000000000000000000000000000000005f52601160045260245ffd5b5f610b2b826105d9565b9150610b36836105d9565b9250828201905060ff811115610b4f57610b4e610af4565b5b92915050565b5f608082019050610b685f8301876106e1565b610b7560208301866108df565b610b8260408301856106e1565b610b8f60608301846106e1565b9594505050505056fea264697066735822122040d666ba24e005e88cbdfad9916e8196d813303f1f3dd6251cfb5b6f00e6cf6864736f6c63430008140033","linkReferences":{}},"methodIdentifiers":{"chainId()":"9a8a0592","getDomainSeparator()":"ed24911d","hashResolution((uint256,uint8,uint64))":"2fb57fa3","oracle()":"7dc0d1d0","verifyResolution(uint256,uint8,bytes)":"f263df5c"},"id":4}